:100000000C942A000C943F000C943F000C943F0089
:100010000C943F000C943F000C943F000C943F0064
:100020000C943F000C943F000C943F000C943F0054
:100030000C943F000C943F000C943F000C943F0044
:100040000C943F000C943F000C943F000C943F0034
:100050000C943F0011241FBECFE5D8E0DEBFCDBF1A
:1000600011E0A0E6B0E0E8EBF9E202C005900D92E5
:10007000AE39B107D9F70E9452110C94DA140C94DE
:100080000000EF92FF920F931F937B018C0120E001
:1000900030E040E05FE40E94ED0388238CF0C8016B
:1000A000B70120E030E040E05FE40E94B9010E9427
:1000B000AB049B01AC01205030404040504806C08A
:1000C000C801B7010E94AB049B01AC01B901CA0190
:1000D0001F910F91FF90EF900895A0E0B0E0E3E74B
:1000E000F0E00C940212DC012B01FA019C91923099
:1000F00008F439C1EB018881823008F433C19430AF
:1001000069F4843009F02FC111969C91119789816F
:10011000981709F428C1A6E8B0E025C1843009F495
:1001200021C18230A9F4923009F01DC19A01AD01BC
:1001300088E0EA010990AE01E90109929E0181502F
:10014000C1F7E201898111969C918923818308C1BD
:10015000923009F407C112962D903C901397EB0151
:100160008A819B811496AD90BD90CD90DC901797BD
:10017000EC80FD800E811F819101281B390BB90194
:1001800037FF04C066277727621B730B6032710547
:100190000CF061C0121613066CF537014801062EEB
:1001A00004C096948794779467940A94D2F721E0D8
:1001B00030E040E050E004C0220F331F441F551FC1
:1001C0006A95D2F721503040404050402E213F21C7
:1001D00040235123211531054105510521F021E02E
:1001E00030E040E050E079018A01E628F72808294C
:1001F00019293CC0232BD1F1260E371E35014601AB
:10020000062E04C096948794779467940A94D2F744
:1002100021E030E040E050E004C0220F331F441FD3
:10022000551F6A95D2F721503040404050402A2156
:100230003B214C215D21211531054105510521F05E
:1002400021E030E040E050E059016A01A628B728DB
:10025000C828D9280BC0821593052CF01C01AA24AC
:10026000BB24650103C0EE24FF24870111969C91F5
:10027000D20111968C91981709F445C0992339F051
:10028000A80197012A193B094C095D0906C0A6017E
:1002900095012E193F09400B510B57FD08C01182E3
:1002A0003382228224833583468357831DC081E0B5
:1002B00081833382228288279927DC01821B930B5A
:1002C000A40BB50B84839583A683B7830DC0220F3F
:1002D000331F441F551F24833583468357838281F0
:1002E000938101979383828324813581468157814D
:1002F000DA01C9010197A109B1098F5F9F4FAF4F83
:10030000BF4328F30BC0918333822282EA0CFB1C8B
:100310000C1D1D1DE482F5820683178383E0808314
:10032000248135814681578157FF1AC0C901AA2708
:1003300097FDA095BA2F81709070A070B0705695FF
:10034000479537952795822B932BA42BB52B848328
:100350009583A683B7838281938101969383828359
:10036000DF0101C0D201CD01CDB7DEB7E2E10C94CF
:100370001E12A0E2B0E0EFEBF1E00C940E126983E4
:100380007A838B839C832D833E834F835887E9E058
:10039000EE2EF12CEC0EFD1ECE010196B7010E944F
:1003A00023068E010F5E1F4FCE010596B8010E94F5
:1003B00023068A8991E089278A8BC701B801AE019B
:1003C000475E5F4F0E946D000E944E05A096E6E0DA
:1003D0000C942A12A0E2B0E0E0EFF1E00C940E12CF
:1003E00069837A838B839C832D833E834F835887D5
:1003F000F9E0EF2EF12CEC0EFD1ECE010196B701B7
:100400000E9423068E010F5E1F4FCE010596B80194
:100410000E942306C701B801AE01475E5F4F0E94EC
:100420006D000E944E05A096E6E00C942A12A0E210
:10043000B0E0EDE1F2E00C94021269837A838B83E1
:100440009C832D833E834F835887CE010196BE0146
:10045000675F7F4F0E942306CE010596BE016F5E47
:100460007F4F0E9423069985923088F089898230D7
:10047000C8F0943019F4823051F404C0843029F467
:10048000923081F486E890E0C6C0923049F420E0D2
:100490009A858A89981321E02A87CE010996BBC0E4
:1004A000823049F420E09A858A89981321E02A8BCA
:1004B000CE014196B0C02D843E844F8458886D880B
:1004C0007E888F88988CEE24FF248701AA24BB2481
:1004D000650140E050E060E070E0E0E0F0E0C10184
:1004E00081709070892BE9F0E60CF71C081D191D2E
:1004F0009A01AB012A0D3B1D4C1D5D1D80E090E073
:10050000A0E0B0E0E614F7040805190520F481E046
:1005100090E0A0E0B0E0BA01A901480F591F6A1F9E
:100520007B1FAA0CBB1CCC1CDD1C97FE08C081E005
:1005300090E0A0E0B0E0A82AB92ACA2ADB2A3196C6
:10054000E032F10549F0660C771C881C991C569422
:10055000479437942794C3CFFA85EA892B893C893D
:100560008B859C85280F391F2E5F3F4F17C0CA010E
:1005700081709070892B61F016950795F794E79438
:1005800080E090E0A0E0B0E8E82AF92A0A2B1B2BD3
:1005900076956795579547952F5F3F4F77FDE7CF46
:1005A0000CC0440F551F661F771F17FD4160EE0CEE
:1005B000FF1C001F111F21503040403090E05907B0
:1005C00090E0690790E4790760F32B8F3C8FDB01A3
:1005D000CA018F779070A070B07080349105A1052A
:1005E000B10561F447FD0AC0E114F10401051105EC
:1005F00029F0405C5F4F6F4F7F4F40781A8EFE1797
:1006000011F081E08A8F4D8F5E8F6F8F78A383E02A
:10061000898FCE0149960E944E05A096E2E10C9486
:100620001E12A8E1B0E0E7E1F3E00C940A1269833E
:100630007A838B839C832D833E834F835887B9E0D5
:10064000EB2EF12CEC0EFD1ECE010196B7010E949F
:1006500023068E010F5E1F4FCE010596B8010E9442
:1006600023062985223008F47EC03989323010F4FF
:10067000B8017CC08A859A8989278A87243011F03D
:10068000223031F4231709F06EC066E870E06EC0C6
:10069000343039F41D861E861F86188A1C861B86F8
:1006A00004C0323021F484E08987B7015FC02B8514
:1006B0003C858B899C89281B390B3C872B87ED84D3
:1006C000FE840F851889AD88BE88CF88D88CEA143F
:1006D000FB040C051D0540F4EE0CFF1C001F111F50
:1006E000215030403C872B8720E030E040E050E054
:1006F00080E090E0A0E0B0E460E070E0EA14FB0489
:100700000C051D0540F0282B392B4A2B5B2BEA18D2
:10071000FB080C091D09B695A79597958795EE0CD2
:10072000FF1C001F111F6F5F7F4F6F31710531F785
:10073000DA01C9018F779070A070B0708034910594
:10074000A105B10561F427FD0AC0E114F10401051A
:10075000110529F0205C3F4F4F4F5F4F20782D87C8
:100760003E874F87588BBE01675F7F4FCB010E944A
:100770004E056896EAE00C942612A8E1B0E0E3EC9E
:10078000F3E00C940E1269837A838B839C832D8310
:100790003E834F83588789E0E82EF12CEC0EFD1E36
:1007A000CE010196B7010E9423068E010F5E1F4FF6
:1007B000CE010596B8010E9423068985823040F05B
:1007C0008989823028F0C701B8010E949B0601C0C8
:1007D0008FEF6896E6E00C942A12A8E1B0E0E3EF10
:1007E000F3E00C940E1269837A838B839C832D83B0
:1007F0003E834F83588789E0E82EF12CEC0EFD1ED6
:10080000CE010196B7010E9423068E010F5E1F4F95
:10081000CE010596B8010E9423068985823040F0FA
:100820008989823028F0C701B8010E949B0601C067
:100830008FEF6896E6E00C942A12A8E1B0E0E3E2BC
:10084000F4E00C940E1269837A838B839C832D834E
:100850003E834F83588789E0E82EF12CEC0EFD1E75
:10086000CE010196B7010E9423068E010F5E1F4F35
:10087000CE010596B8010E9423068985823040F09A
:100880008989823028F0C701B8010E949B0601C007
:1008900081E06896E6E00C942A12A8E0B0E0E3E577
:1008A000F4E00C940B129B01AC0183E08983DA0124
:1008B000C9018827B7FD83959927AA27BB27B82E9A
:1008C000211531054105510519F482E089833AC0AB
:1008D0008823A9F0203080E0380780E0480780E8CE
:1008E000580729F460E070E080E09FEC30C0EE240F
:1008F000FF248701E21AF30A040B150B02C07901E9
:100900008A018EE1C82ED12CDC82CB82ED82FE8260
:100910000F831887C801B7010E94FF0401971816BA
:10092000190684F4082E04C0EE0CFF1C001F111FD2
:100930000A94D2F7ED82FE820F831887C81AD90A6B
:10094000DC82CB82BA82CE0101960E944E052896A7
:10095000E9E00C942712ACE0B0E0E1EBF4E00C9499
:10096000121269837A838B839C83CE010196BE0128
:100970006B5F7F4F0E9423068D81823061F1823050
:1009800050F1843021F48E81882351F12EC02F81C3
:10099000388537FD20C06E812F3131051CF066236C
:1009A000F9F023C08EE190E0821B930B29853A85F4
:1009B0004B855C8504C056954795379527958A9554
:1009C000D2F76623B1F050954095309521953F4F71
:1009D0004F4F5F4F0EC020E030E040E050E009C0D4
:1009E0002FEF3FEF4FEF5FE704C020E030E040E043
:1009F00050E8B901CA012C96E2E00C942E12EF9255
:100A0000FF920F931F937B018C0180E0E81680E03A
:100A1000F80681E0080780E0180788F48FEFE816F1
:100A2000F1040105110531F028F088E090E0A0E024
:100A3000B0E017C080E090E0A0E0B0E012C080E03D
:100A4000E81680E0F80680E0080781E0180728F043
:100A500088E190E0A0E0B0E004C080E190E0A0E098
:100A6000B0E020E230E040E050E0281B390B4A0BB8
:100A70005B0B04C016950795F794E7948A95D2F717
:100A8000F701E257FF4F8081281B310941095109C5
:100A9000C9011F910F91FF90EF900895DF92EF929F
:100AA000FF920F931F93FC01E480F580068117816C
:100AB000D1808081823048F480E090E0A0E1B0E015
:100AC000E82AF92A0A2B1B2BA5C0843009F49FC001
:100AD000823021F4EE24FF24870105C0E114F104E3
:100AE0000105110519F4E0E0F0E096C06281738120
:100AF0009FEF623879070CF05BC022E83FEF261BBE
:100B0000370B2A3131052CF020E030E040E050E096
:100B10002AC0B801A701022E04C0769567955795A3
:100B200047950A94D2F781E090E0A0E0B0E004C0DD
:100B3000880F991FAA1FBB1F2A95D2F70197A109F9
:100B4000B1098E219F21A023B1230097A105B105F2
:100B500021F081E090E0A0E0B0E09A01AB01282B09
:100B6000392B4A2B5B2BDA01C9018F779070A0706B
:100B7000B07080349105A105B10539F427FF09C093
:100B8000205C3F4F4F4F5F4F04C0215C3F4F4F4FA2
:100B90005F4FE0E0F0E02030A0E03A07A0E04A0735
:100BA000A0E45A0710F0E1E0F0E079018A0127C0E3
:100BB0006038710564F5FB01E158FF4FD801C701AA
:100BC0008F779070A070B07080349105A105B10549
:100BD00039F4E7FE0DC080E490E0A0E0B0E004C08E
:100BE0008FE390E0A0E0B0E0E80EF91E0A1F1B1FA3
:100BF00017FF05C016950795F794E794319687E09F
:100C000016950795F794E7948A95D1F705C0EE24D9
:100C1000FF248701EFEFF0E06E2F67956627679559
:100C2000902F9F77D794DD24D7948E2F8695492FC8
:100C3000462B582F5D29B701CA011F910F91FF90D4
:100C4000EF90DF900895FC01DB014081518122810A
:100C5000622F6F7770E0221F2227221F9381892F36
:100C6000880F822B282F30E0991F9927991F119602
:100C70009C93119721153105A9F541155105610581
:100C8000710511F482E037C082E89FEF13969C93C0
:100C90008E9312979A01AB0167E0220F331F441F16
:100CA000551F6A95D1F783E08C930DC0220F331F37
:100CB000441F551F12968D919C911397019713967F
:100CC0009C938E931297203080E0380780E048078D
:100CD00080E4580758F314962D933D934D935C93FD
:100CE000179708952F3F310579F441155105610596
:100CF000710519F484E08C93089564FF03C081E0CA
:100D00008C9312C01C9210C02F57304013963C9306
:100D10002E93129783E08C9387E0440F551F661F34
:100D2000771F8A95D1F7706414964D935D936D93F8
:100D30007C93179708951F93DC01FB019C919230DF
:100D400008F447C08081823008F443C0943051F4E5
:100D500011961C91843099F58181682F70E0611B98
:100D600071093FC0843021F0923031F48230B9F102
:100D70008181882389F12DC011961C9111978230B1
:100D8000F1F081811817D9F412962D913C911397A7
:100D9000828193818217930794F028173907BCF05A
:100DA00014968D919D910D90BC91A02D248135813B
:100DB00046815781281739074A075B0718F4112322
:100DC00041F00AC082179307A407B50740F4112326
:100DD00019F061E070E005C06FEF7FEF02C060E0E6
:100DE00070E0CB011F910895DF93CF93CDB7DEB7AD
:100DF0006D970FB6F894DEBF0FBECDBF80E090E0D8
:100E0000A0EAB1E4898F9A8FAB8FBC8F698D7A8D00
:100E10008B8D9C8D20E030E04AEF54E40E94170255
:100E2000DC01CB018D8B9E8BAF8BB88F6D897E895A
:100E30008F89988D20E030E040E85FE30E941D0438
:100E400088232CF481E090E09C8B8B8B3FC06D89D4
:100E50007E898F89988D20E03FEF4FE757E40E940D
:100E6000BD0318164CF5698D7A8D8B8D9C8D20E015
:100E700030E040E251E40E941702DC01CB01BC01EA
:100E8000CD010E944100DC01CB019C8B8B8B0FC0FC
:100E900088EC90E09A8B898B89899A890197F1F780
:100EA0009A8B898B8B899C8901979C8B8B8B8B89E7
:100EB0009C89009769F714C06D897E898F89988D08
:100EC0000E944100DC01CB019C8B8B8B8B899C8920
:100ED000988B8F878F8598890197F1F7988B8F87EB
:100EE000A4E3B0E0E4E3F0E0808187608C93A5E3C5
:100EF000B0E0E5E3F0E08081887F8C93E1E3F0E00F
:100F00008081E1E3F0E08FEF808380E090E0A0E774
:100F1000B1E48B879C87AD87BE876B857C858D858B
:100F20009E8520E030E04AEF54E40E941702DC0185
:100F3000CB018F839887A987BA876F817885898548
:100F40009A8520E030E040E85FE30E941D0488239A
:100F50002CF481E090E09E838D833FC06F81788583
:100F600089859A8520E03FEF4FE757E40E94BD0353
:100F700018164CF56B857C858D859E8520E030E0CC
:100F800040E251E40E941702DC01CB01BC01CD011B
:100F90000E944100DC01CB019E838D830FC088EC51
:100FA00090E09C838B838B819C810197F1F79C83DC
:100FB0008B838D819E8101979E838D838D819E8100
:100FC000009769F714C06F81788589859A850E949A
:100FD0004100DC01CB019E838D838D819E819A83AC
:100FE000898389819A810197F1F79A8389830E9485
:100FF000110882E00E941B0888E30E941B0886E01B
:101000000E941B0880E80E941B088FE00E941B08BA
:101010006D960FB6F894DEBF0FBECDBFCF91DF91B6
:101020000895DF93CF93CDB7DEB781E00E941B0810
:10103000CF91DF910895DF93CF930F92CDB7DEB7B5
:101040008983E2E3F0E089818083A5E3B0E0E5E312
:10105000F0E080818C7F8C930E9432080F90CF91BA
:10106000DF910895DF93CF93CDB7DEB768970FB6C2
:10107000F894DEBF0FBECDBFA5E3B0E0E5E3F0E03E
:1010800080818B7F8C9380E090E0A0E0BFE38D8B2C
:101090009E8BAF8BB88F6D897E898F89988D2BEA57
:1010A0003AEA4AE250E40E941702DC01CB01898B44
:1010B0009A8BAB8BBC8B69897A898B899C8920E060
:1010C00030E040E85FE30E941D0488231CF481E0C7
:1010D000888B91C069897A898B899C8920E030E06E
:1010E0004FE753E40E94BD0318160CF07BC06D89D6
:1010F0007E898F89988D20E030E04AE754E40E9491
:101100001103DC01CB018C879D87AE87BF876C857F
:101110007D858E859F8520E030E04AEF54E40E9473
:101120001702DC01CB0188879987AA87BB8768856E
:1011300079858A859B8520E030E040E85FE30E9466
:101140001D0488232CF481E090E09F838E833FC0B0
:10115000688579858A859B8520E03FEF4FE757E4D6
:101160000E94BD0318164CF56C857D858E859F8584
:1011700020E030E040E251E40E941702DC01CB01A4
:10118000BC01CD010E944100DC01CB019F838E8315
:101190000FC088EC90E09D838C838C819D810197AA
:1011A000F1F79D838C838E819F8101979F838E832E
:1011B0008E819F81009769F724C0688579858A852B
:1011C0009B850E944100DC01CB019F838E838E8131
:1011D0009F819B838A838A819B810197F1F79B83FF
:1011E0008A830FC069897A898B899C890E94410012
:1011F000DC01CB01888B8889898389818A95F1F705
:101200008983A5E3B0E0E5E3F0E0808184608C931E
:1012100068960FB6F894DEBF0FBECDBFCF91DF91B9
:101220000895DF93CF930F92CDB7DEB78983E2E3C2
:10123000F0E089818083A5E3B0E0E5E3F0E0808120
:1012400081608C93A5E3B0E0E5E3F0E080818D7FE1
:101250008C930E9432080F90CF91DF910895DF9315
:10126000CF9300D000D0CDB7DEB789836A838A815F
:101270008031C0F48981282F30E03C832B838B811F
:101280009C81009731F02B813C812130310531F078
:1012900009C08A8180580E941B0804C08A8180543A
:1012A0000E941B080F900F900F900F90CF91DF912D
:1012B0000895DF93CF9300D000D0CDB7DEB79C83E5
:1012C0008B831A8219820FC029813A818B819C817C
:1012D000FC01E20FF31F80810E94110989819A812C
:1012E00001969A83898389819A818031910554F48A
:1012F00029813A818B819C81FC01E20FF31F80815F
:10130000882311F70F900F900F900F90CF91DF91DE
:101310000895DF93CF93CDB7DEB729970FB6F89432
:10132000DEBF0FBECDBF9987888700D000D000D028
:10133000EDB7FEB73196CE0101969183808380E6AA
:1013400090E09383828388859985958384830E9426
:1013500039128DB79EB706960FB6F8949EBF0FBE92
:101360008DBFCE0101960E94590929960FB6F894B7
:10137000DEBF0FBECDBFCF91DF910895DF93CF9336
:10138000CDB7DEB76A970FB6F894DEBF0FBECDBFFC
:101390006E8B7F8B888F998F6E897F89888D998DD1
:1013A0000E94AB04DC01CB019D838C838C819D81E9
:1013B000AA2797FDA095BA2FBC01CD010E944D042C
:1013C0009B01AC016E897F89888D998D0E94B9013E
:1013D000DC01CB01BC01CD0120E030E04AE754E460
:1013E0000E941702DC01CB01BC01CD010E94AB04BD
:1013F000DC01CB019B838A836E897F89888D998DDF
:1014000020E030E040E050E00E941D0488231CF4FE
:101410008DE28A8F02C09AE39A8F8A8D89838981AF
:10142000282F30E08DB79EB70A970FB6F8949EBF6D
:101430000FBE8DBFEDB7FEB73196CE0106969183F4
:10144000808383E690E093838283358324838C8139
:101450009D81978386838A819B81918780870E9463
:1014600039128DB79EB70A960FB6F8949EBF0FBE7D
:101470008DBFCE0106960E9459096A960FB6F89460
:10148000DEBF0FBECDBFCF91DF910895DF93CF9325
:10149000CDB7DEB7AAE3B0E0EAE3F0E08081807F79
:1014A0008C93AAE3B0E0EAE3F0E08081806F8C9354
:1014B000ABE3B0E0EBE3F0E08081806F8C93CF9101
:1014C000DF910895DF93CF93CDB7DEB7A3970FB623
:1014D000F894DEBF0FBECDBF18A21F8E1BC2ABE3B8
:1014E000B0E0EBE3F0E08081582F2091960130913D
:1014F000970181E090E002C0880F991F2A95E2F7DA
:10150000482F209198013091990181E090E002C02C
:10151000880F991F2A95E2F7482B20919A01309164
:101520009B0181E090E002C0880F991F2A95E2F7A5
:10153000482B20919C0130919D0181E090E002C0F8
:10154000880F991F2A95E2F7842B852B8C93ABE3A8
:10155000B0E0EBE3F0E08081482F8F8D98A1880FF9
:10156000991FFC01EA56FE4F2081318181E090E015
:1015700002C0880F991F2A95E2F7809584238C93E7
:1015800080E090E0A0EAB0E4898F9A8FAB8FBC8FA7
:10159000698D7A8D8B8D9C8D20E030E04AEF54E48C
:1015A0000E941702DC01CB018D8B9E8BAF8BB88F15
:1015B0006D897E898F89988D20E030E040E85FE377
:1015C0000E941D0488232CF481E090E09C8B8B8B7F
:1015D0003FC06D897E898F89988D20E03FEF4FE76E
:1015E00057E40E94BD0318164CF5698D7A8D8B8DDA
:1015F0009C8D20E030E040E251E40E941702DC01C3
:10160000CB01BC01CD010E944100DC01CB019C8BD0
:101610008B8B0FC088EC90E09A8B898B89899A8993
:101620000197F1F79A8B898B8B899C8901979C8B09
:101630008B8B8B899C89009769F714C06D897E8993
:101640008F89988D0E944100DC01CB019C8B8B8B94
:101650008B899C89988B8F878F8598890197F1F763
:10166000988B8F871E8E1D8E4AC1E9E3F0E0808142
:10167000282F30E08D8D9E8D880F991FFC01E25739
:10168000FE4F80819181A90102C0559547958A95A9
:10169000E2F7CA0181709070009709F02BC180E0D9
:1016A00090E0A0EAB1E48B879C87AD87BE876B850D
:1016B0007C858D859E8520E030E04AEF54E40E94D1
:1016C0001702DC01CB018F839887A987BA876F81C6
:1016D000788589859A8520E030E040E85FE30E94C4
:1016E0001D0488232CF481E090E09E838D833FC00D
:1016F0006F81788589859A8520E03FEF4FE757E431
:101700000E94BD0318164CF56B857C858D859E85E2
:1017100020E030E040E251E40E941702DC01CB01FE
:10172000BC01CD010E944100DC01CB019E838D8371
:101730000FC088EC90E09C838B838B819C81019708
:10174000F1F79C838B838D819E8101979E838D838E
:101750008D819E81009769F714C06F817885898596
:101760009A850E944100DC01CB019E838D838D818F
:101770009E819A83898389819A810197F1F79A835F
:101780008983E9E3F0E08081282F30E08D8D9E8D04
:10179000880F991FFC01E257FE4F80819181A901BA
:1017A00002C0559547958A95E2F7CA0181709070FD
:1017B000009709F09FC08F8D98A19BA38AA34AA18F
:1017C0005BA141305105C1F18AA19BA182309105F5
:1017D00034F44AA15BA14115510571F08BC08AA177
:1017E0009BA18230910509F447C04AA15BA1433017
:1017F000510509F460C07EC08D8D9E8D009719F44F
:1018000057E359A38EC08D8D9E8D8130910519F4BB
:1018100084E389A386C08D8D9E8D8230910519F455
:1018200091E399A37EC08D8D9E8D8330910509F043
:1018300061C04EE249A375C08D8D9E8D009719F44D
:1018400058E359A36EC08D8D9E8D8130910519F49A
:1018500085E389A366C08D8D9E8D8230910519F434
:1018600092E399A35EC08D8D9E8D8330910509F022
:1018700041C040E349A355C08D8D9E8D009719F45A
:1018800059E359A34EC08D8D9E8D8130910519F479
:1018900086E389A346C08D8D9E8D8230910519F413
:1018A00093E399A33EC08D8D9E8D8330910511F5F4
:1018B0004DE349A336C08D8D9E8D009719F45FE2EC
:1018C00059A32FC08D8D9E8D8130910519F48AE228
:1018D00089A327C08D8D9E8D8230910519F49DE2DC
:1018E00099A31FC08D8D9E8D8330910519F44BE215
:1018F00049A317C08D8D9E8D01969E8F8D8F8D8DE6
:101900009E8D843091050CF4B0CE8F8D98A10196F8
:1019100098A38F8F8F8D98A1843091050CF4DFCD23
:10192000DBCD89A1A3960FB6F894DEBF0FBECDBF65
:10193000CF91DF910895DF93CF93CDB7DEB72E9788
:101940000FB6F894DEBF0FBECDBF0E94620A8E3282
:1019500009F074C00E94110880E090E0AAEFB3E49F
:101960008B879C87AD87BE876B857C858D859E85A3
:1019700020E030E04AEF54E40E941702DC01CB0182
:101980008F839887A987BA876F81788589859A859B
:1019900020E030E040E85FE30E941D0488232CF43F
:1019A00081E090E09E838D833FC06F81788589853B
:1019B0009A8520E03FEF4FE757E40E94BD031816D9
:1019C0004CF56B857C858D859E8520E030E040E27E
:1019D00051E40E941702DC01CB01BC01CD010E9441
:1019E0004100DC01CB019E838D830FC088EC90E029
:1019F0009C838B838B819C810197F1F79C838B83E4
:101A00008D819E8101979E838D838D819E8100971C
:101A100069F714C06F81788589859A850E94410095
:101A2000DC01CB019E838D838D819E819A83898386
:101A300089819A810197F1F79A8389832E960FB64F
:101A4000F894DEBF0FBECDBFCF91DF9108950F9305
:101A50001F93DF93CF93CDB7DEB7CD55D0400FB6F0
:101A6000F894DEBF0FBECDBFFE01EB5AFF4F1082D0
:101A70000E9411080E94620AFE01E55AFF4F80830E
:101A8000DE01A65ABF4FFE01E55AFF4F80818C93BD
:101A9000FE01E65AFF4F80810E941109FE01EF5AB4
:101AA000FF4F80E090E0AAEFB3E480839183A283AC
:101AB000B3838E01035B1F4FFE01EF5AFF4F60811E
:101AC00071818281938120E030E04AEF54E40E94EA
:101AD0001702DC01CB01F80180839183A283B383D9
:101AE000FE01E35BFF4F608171818281938120E081
:101AF00030E040E85FE30E941D04882344F4FE01C7
:101B0000E55BFF4F81E090E09183808364C0FE013C
:101B1000E35BFF4F608171818281938120E03FEF21
:101B20004FE757E40E94BD0318160CF043C0FE01B6
:101B3000EF5AFF4F608171818281938120E030E014
:101B400040E251E40E941702DC01CB018E01055BEB
:101B50001F4FBC01CD010E944100DC01CB01F80107
:101B6000918380831FC0FE01E75BFF4F88EC90E00C
:101B700091838083FE01E75BFF4F80819181019714
:101B8000F1F7FE01E75BFF4F91838083DE01A55BE8
:101B9000BF4FFE01E55BFF4F808191810197119658
:101BA0009C938E93FE01E55BFF4F808191810097AE
:101BB000D1F627C08E01055B1F4FFE01E35BFF4F8F
:101BC00060817181828193810E944100DC01CB019F
:101BD000F80191838083DE01A95BBF4FFE01E55BC5
:101BE000FF4F808191818D939C93FE01E95BFF4FB4
:101BF000808191810197F1F7FE01E95BFF4F9183AD
:101C000080830E94620AFE01E55AFF4F8083DE0155
:101C1000A85ABF4FFE01E55AFF4F80818C93FE0109
:101C2000E85AFF4F80810E941109FE01ED5BFF4FD2
:101C300080E090E0AAEFB3E480839183A283B38332
:101C40008E01015C1F4FFE01ED5BFF4F60817181D2
:101C50008281938120E030E04AEF54E40E94170231
:101C6000DC01CB01F80180839183A283B383FE0161
:101C7000FF96608171818281938120E030E040E8AD
:101C80005FE30E941D0488232CF481E090E09EAF66
:101C90008DAF46C0FE01FF96608171818281938184
:101CA00020E03FEF4FE757E40E94BD03181664F5AC
:101CB000FE01ED5BFF4F608171818281938120E0A5
:101CC00030E040E251E40E941702DC01CB01BC018C
:101CD000CD010E944100DC01CB019EAF8DAF0FC052
:101CE00088EC90E09CAF8BAF8BAD9CAD0197F1F78A
:101CF0009CAF8BAF8DAD9EAD01979EAF8DAF8DAD7F
:101D00009EAD009769F716C0FE01FF966081718154
:101D1000828193810E944100DC01CB019EAF8DAF97
:101D20008DAD9EAD9AAF89AF89AD9AAD0197F1F7B0
:101D30009AAF89AF0E94620AFE01E55AFF4F808385
:101D4000DE01A75ABF4FFE01E55AFF4F80818C93F9
:101D5000FE01E75AFF4F80810E94110980E090E068
:101D6000AAEFB3E48DAB9EABAFABB8AF6DA97EA9C4
:101D70008FA998AD20E030E04AEF54E40E941702AA
:101D8000DC01CB0189AB9AABABABBCAB69A97AA93F
:101D90008BA99CA920E030E040E85FE30E941D048D
:101DA00088232CF481E090E098AB8FA73FC069A90D
:101DB0007AA98BA99CA920E03FEF4FE757E40E9446
:101DC000BD0318164CF56DA97EA98FA998AD20E02A
:101DD00030E040E251E40E941702DC01CB01BC017B
:101DE000CD010E944100DC01CB0198AB8FA70FC051
:101DF00088EC90E09EA78DA78DA59EA50197F1F791
:101E00009EA78DA78FA598A9019798AB8FA78FA59F
:101E100098A9009769F714C069A97AA98BA99CA908
:101E20000E944100DC01CB0198AB8FA78FA598A938
:101E30009CA78BA78BA59CA50197F1F79CA78BA7C7
:101E40000E94620AFE01E55AFF4F8083DE01A95A13
:101E5000BF4FFE01E55AFF4F80818C93FE01E95A86
:101E6000FF4F80810E94110980E090E0AAEFB3E467
:101E70008FA398A7A9A7BAA76FA178A589A59AA5A6
:101E800020E030E04AEF54E40E941702DC01CB016D
:101E90008BA39CA3ADA3BEA36BA17CA18DA19EA18E
:101EA00020E030E040E85FE30E941D0488232CF42A
:101EB00081E090E09AA389A33FC06BA17CA18DA192
:101EC0009EA120E03FEF4FE757E40E94BD031816A4
:101ED0004CF56FA178A589A59AA520E030E040E2F5
:101EE00051E40E941702DC01CB01BC01CD010E942C
:101EF0004100DC01CB019AA389A30FC088EC90E0DC
:101F000098A38F8F8F8D98A10197F1F798A38F8F4A
:101F100089A19AA101979AA389A389A19AA100975F
:101F200069F714C06BA17CA18DA19EA10E94410004
:101F3000DC01CB019AA389A389A19AA19E8F8D8FE1
:101F40008D8D9E8D0197F1F79E8F8D8FFE01E85A42
:101F5000FF4F8081282F30E06E963FAF2EAF6E97F7
:101F60006E964EAD5FAD6E974B325105F9F06E96A1
:101F70008EAD9FAD6E978C32910544F46E96EEADAA
:101F8000FFAD6E97EA32F105A9F17EC06E962EADD7
:101F90003FAD6E972D323105D1F06E964EAD5FADEF
:101FA0006E974F32510509F443C06EC0FE01E65AE8
:101FB000FF4F8081982F9F70FE01E75AFF4F80816D
:101FC0008F70FE01EA5AFF4F890F8083D3C0FE0154
:101FD000E65AFF4F8081982F9F70FE01E75AFF4F0E
:101FE00080818F70FE01EA5AFF4F592F581B852FB1
:101FF0008083C0C0FE01E65AFF4F8081882F90E0A9
:102000009C012F703070FE01E75AFF4F8081882FAE
:1020100090E08F709070FC012E9FC0012F9F900D5B
:102020003E9F900D1124FE01EA5AFF4F8083A2C00B
:10203000FE01E65AFF4F8081882F90E0AC014F707F
:102040005070FE01E75AFF4F8081882F90E09C017D
:102050002F703070CA01B9010E94DB11CB01FE0163
:10206000EA5AFF4F8083FE01E75AFF4F8081882F95
:1020700090E08F709070009709F07CC0FE01EB5AE1
:10208000FF4F81E0808376C08FE690E00E9459097F
:1020900080E090E0AAEFB3E4898F9A8FAB8FBC8F7A
:1020A000698D7A8D8B8D9C8D20E030E04AEF54E471
:1020B0000E941702DC01CB018D8B9E8BAF8BB88FFA
:1020C0006D897E898F89988D20E030E040E85FE35C
:1020D0000E941D0488232CF481E090E09C8B8B8B64
:1020E0003FC06D897E898F89988D20E03FEF4FE753
:1020F00057E40E94BD0318164CF5698D7A8D8B8DBF
:102100009C8D20E030E040E251E40E941702DC01A7
:10211000CB01BC01CD010E944100DC01CB019C8BB5
:102120008B8B0FC088EC90E09A8B898B89899A8978
:102130000197F1F79A8B898B8B899C8901979C8BEE
:102140008B8B8B899C89009769F714C06D897E8978
:102150008F89988D0E944100DC01CB019C8B8B8B79
:102160008B899C89988B8F878F8598890197F1F748
:10217000988B8F87FE01EB5AFF4F8081813029F4C5
:102180008FE690E00E94590979C0FE01EA5AFF4F9C
:10219000808180630E94110980E090E0AAEFB3E49F
:1021A0008B879C87AD87BE876B857C858D859E855B
:1021B00020E030E04AEF54E40E941702DC01CB013A
:1021C0008F839887A987BA876F81788589859A8553
:1021D00020E030E040E85FE30E941D0488232CF4F7
:1021E00081E090E09E838D833FC06F8178858985F3
:1021F0009A8520E03FEF4FE757E40E94BD03181691
:102200004CF56B857C858D859E8520E030E040E235
:1022100051E40E941702DC01CB01BC01CD010E94F8
:102220004100DC01CB019E838D830FC088EC90E0E0
:102230009C838B838B819C810197F1F79C838B839B
:102240008D819E8101979E838D838D819E810097D4
:1022500069F714C06F81788589859A850E9441004D
:10226000DC01CB019E838D838D819E819A8389833E
:1022700089819A810197F1F79A8389830E94620A82
:10228000FE01E55AFF4F80830E949B0CC35ADF4F2B
:102290000FB6F894DEBF0FBECDBFCF91DF911F9177
:1022A0000F910895DF93CF93CDB7DEB72E970FB67A
:1022B000F894DEBF0FBECDBF0E94F4060E94460A0E
:1022C00085E790E00E94590980E090E0AAEFB4E42D
:1022D0008B879C87AD87BE876B857C858D859E852A
:1022E00020E030E04AEF54E40E941702DC01CB0109
:1022F0008F839887A987BA876F81788589859A8522
:1023000020E030E040E85FE30E941D0488232CF4C5
:1023100081E090E09E838D833FC06F8178858985C1
:102320009A8520E03FEF4FE757E40E94BD0318165F
:102330004CF56B857C858D859E8520E030E040E204
:1023400051E40E941702DC01CB01BC01CD010E94C7
:102350004100DC01CB019E838D830FC088EC90E0AF
:102360009C838B838B819C810197F1F79C838B836A
:102370008D819E8101979E838D838D819E810097A3
:1023800069F714C06F81788589859A850E9441001C
:10239000DC01CB019E838D838D819E819A8389830D
:1023A00089819A810197F1F79A8389830E941108A4
:1023B0000E94270DFDCF97FB092E07260AD077FD37
:1023C00004D00CD006D000201AF4709561957F4F90
:1023D0000895F6F7909581959F4F0895AA1BBB1B12
:1023E00051E107C0AA1FBB1FA617B70710F0A61B15
:1023F000B70B881F991F5A95A9F780959095BC0136
:10240000CD0108952F923F924F925F926F927F92EB
:102410008F929F92AF92BF92CF92DF92EF92FF92F4
:102420000F931F93CF93DF93CDB7DEB7CA1BDB0BA0
:102430000FB6F894DEBF0FBECDBF09942A88398845
:1024400048885F846E847D848C849B84AA84B9844C
:10245000C884DF80EE80FD800C811B81AA81B98158
:10246000CE0FD11D0FB6F894DEBF0FBECDBFED016C
:102470000895AEE0B0E0EFE3F2E10C9410120D89A4
:102480001E8986E08C831A8309838FEF9FE79E83E2
:102490008D839E01275E3F4FCE0101966F89788D17
:1024A000A9010E945D122F813885020F131FF801C8
:1024B00010822E96E4E00C942C12ABE0B0E0E3E640
:1024C000F2E10C9402123C012B015A01FC0117822B
:1024D0001682838181FD03C06FEF7FEFC6C19AE052
:1024E000892E1E010894211C311CF3012381F20165
:1024F00023FD859123FF81912F01882309F4B2C127
:10250000853239F423FD859123FF81912F01853296
:1025100029F490E0B3010E945014E7CF982FFF24D4
:10252000EE249924FFE1FF15D0F09B3269F09C3234
:1025300028F4903259F0933291F40EC09D3249F054
:10254000903369F441E024C052E0F52A84E0F82A8F
:1025500028C098E0F92A25C0E0E1FE2A22C0F7FC55
:1025600029C0892F80538A3070F4F6FE05C0989CEC
:10257000902C1124980E15C0E89CE02C1124E80E34
:10258000F0E2FF2A0EC09E3229F4F6FC6BC140E453
:10259000F42A07C09C3619F450E8F52A02C0983690
:1025A00049F4F20123FD959123FF91912F01992385
:1025B00009F0B8CF892F8554833018F080528330CA
:1025C00038F444E050E0A40EB51E5FE359830FC019
:1025D000933631F0933779F0933509F056C020C027
:1025E000F5018081898342E050E0A40EB51E6101AF
:1025F00001E010E012C0F501C080D180F6FC03C0FC
:102600006FEF7FEF02C0692D70E042E050E0A40E52
:10261000B51EC6010E9445148C015FE7F52214C067
:10262000F501C080D180F6FC03C06FEF7FEF02C0E0
:10263000692D70E042E050E0A40EB51EC6010E9474
:102640003A148C0150E8F52AF3FE07C01AC080E264
:1026500090E0B3010E945014EA948E2D90E0081788
:102660001907A8F30EC0F601F7FC8591F7FE8191DA
:102670006F0190E0B3010E945014E110EA94015000
:1026800010400115110579F7EAC0943611F099361A
:1026900069F5F7FE08C0F50120813181428153813F
:1026A00084E090E00AC0F501808191819C0144277B
:1026B00037FD4095542F82E090E0A80EB91E9FE6AA
:1026C000F92257FF09C050954095309521953F4F0D
:1026D0004F4F5F4FE0E8FE2ACA01B901A1012AE08D
:1026E00030E00E947C14D82ED21840C0953729F4CF
:1026F0001F2D1F7E2AE030E01DC01F2D197F9F3641
:1027000061F0903720F4983509F0ACC00FC09037D5
:1027100039F0983709F0A6C004C028E030E00AC0BC
:10272000106114FD146020E130E004C014FD166057
:1027300020E132E017FF08C0F501608171818281DC
:10274000938144E050E008C0F50180819181BC0193
:1027500080E090E042E050E0A40EB51EA1010E948E
:102760007C14D82ED2188FE7F82EF122F6FE0BC07B
:102770005EEFF522D91438F4F4FE07C0F2FC05C070
:102780008FEEF82202C01D2D01C0192DF4FE0DC0E0
:10279000FE01ED0DF11D8081803319F499EEF922CF
:1027A00008C01F5FF2FE05C003C08F2D867809F0B8
:1027B0001F5F0F2DF3FC14C0F0FE0FC01E1510F0AC
:1027C0009D2C0BC09D2C9E0C911A1E2D06C080E2E4
:1027D00090E0B3010E9450141F5F1E15C0F304C0A7
:1027E0001E1510F4E11A01C0EE2404FF0FC080E3AF
:1027F00090E0B3010E94501402FF1DC001FD03C010
:1028000088E790E00EC088E590E00BC0802F8678C6
:1028100091F001FF02C08BE201C080E2F7FC8DE283
:1028200090E0B3010E94501406C080E390E0B30131
:102830000E9450149A94D914C0F3DA94F101ED0D6A
:10284000F11D808190E0B3010E945014DD20A9F7B2
:1028500006C080E290E0B3010E945014EA94EE209A
:10286000C1F743CEF30166817781CB012B96E2E17C
:102870000C941E12FC010590615070400110D8F7B5
:10288000809590958E0F9F1F0895FC0161507040B8
:1028900001900110D8F7809590958E0F9F1F089595
:1028A0000F931F93CF93DF938C01EB018B8181FFFB
:1028B0001BC082FF0DC02E813F818C819D81281716
:1028C000390764F4E881F9810193F983E88306C04C
:1028D000E885F985802F0995892B31F48E819F81B8
:1028E00001969F838E8302C00FEF1FEFC801DF9117
:1028F000CF911F910F910895FA01AA27283051F125
:10290000203181F1E8946F936E7F6E5F7F4F8F4F20
:102910009F4FAF4FB1E03ED0B4E03CD0670F781F7F
:10292000891F9A1FA11D680F791F8A1F911DA11D64
:102930006A0F711D811D911DA11D20D009F468949D
:102940003F912AE0269F11243019305D3193DEF645
:10295000CF010895462F4770405D4193B3E00FD0FB
:10296000C9F7F6CF462F4F70405D4A3318F0495DE6
:1029700031FD4052419302D0A9F7EACFB4E0A695C9
:102980009795879577956795BA95C9F700976105EB
:10299000710508959B01AC010A2E06945795479541
:1029A00037952795BA95C9F7620F731F841F951F36
:0829B000A01D0895F894FFCF6B
:1029B80025640025632025642E20253034640045D5
:1029C80072726F72002A57656C636F6D65204C4197
:1029D8004D5941412A00000000000000000000019C
:1029E80002020303030304040404040404040505A5
:1029F800050505050505050505050505050506067D
:102A0800060606060606060606060606060606065E
:102A1800060606060606060606060606060607074C
:102A2800070707070707070707070707070707072E
:102A3800070707070707070707070707070707071E
:102A4800070707070707070707070707070707070E
:102A580007070707070707070707070707070808FC
:102A680008080808080808080808080808080808DE
:102A780008080808080808080808080808080808CE
:102A880008080808080808080808080808080808BE
:102A980008080808080808080808080808080808AE
:102AA800080808080808080808080808080808089E
:102AB800080808080808080808080808080808088E
:102AC800080808080808080808080808080808087E
:102AD800080808080808080808080808080800007E
:0E2AE8000100020003000400050006000700C4
:00000001FF
